S00D000064726166742E7372656306
S11300000C942A000C943F000C943F000C943F0085
S11300100C943F000C943F000C943F000C943F0060
S11300200C943F000C943F000C943F000C943F0050
S11300300C943F000C943F000C943F000C943F0040
S11300400C943F000C943F000C943F000C943F0030
S11300500C943F0011241FBECFE5D4E0DEBFCDBF1A
S113006010E0A0E6B0E0ECE4F4E002C005900D92EC
S1130070A436B107D9F70E948B000C9424020C9487
S11300800000806287B98AE18A95F1F700C0369A48
S1130090349BFECF349A85B108951BBA81E08ABBA4
S11300A018BA8FEF87BB15BA84BB12BA81BB089507
S11300B08CE683BF12BE1CBE1FBC1EBC1DBC1CBC78
S11300C017BC16BC1BBC1ABC19BC18BC12BC85BD21
S11300D014BC13BC15BE14BE19BE1AB880E888B986
S11300E010BE80E287B983E886B980B78F7180BF7C
S11300F01DB816BE08958CBF63BD959A9698A99AAB
S1130100A898089587E58CBF8AE883BD959A969848
S1130110A998A89A0895CF93DF93CDB7DEB76597D2
S11301200FB6F894DEBF0FBECDBF0E944D000E94F3
S1130130580019825E0122E0A20EB11CCC24C394A3
S1130140D12C6A2C7B2C01E00F2EF7E04F2EF02DE2
S1130150512C7501862C972C102F812F0E94410061
S1130160D4018D934D011F5F1730B9F7FE01389606
S1130170842D952DD7012D917D01233B78F4D382D5
S1130180C28235B3A601082E02C0440F551F0A943B
S1130190E2F7242F2095232325BB0CC0138212825F
S11301A045B39601082E02C0220F331F0A94E2F7CA
S11301B0242B25BB3296019781309105D9F68A8587
S11301C09B850097E1F58C859D85009709F018C102
S11301D08E859F85019709F017C1888999890197B0
S11301E009F012C18A899B89892B09F00DC18C8978
S11301F09D89892B09F4A1C007C188899989892B14
S113020049F48A899B89892B29F48C899D89892BB6
S113021009F49FC08E859F85892B09F07FC088894A
S11302209989019709F07AC08A899B89892B09F0F9
S113023075C08C899D89892B09F495C06FC001977D
S113024009F06CC08C859D858130910509F0E8C06A
S11302508E859F85019709F0DDC08889998901976A
S113026009F0D8C08A899B89892B09F0D3C08C896D
S11302709D89892B09F481C0CDC088899989892BEE
S113028049F48A899B89019729F48C899D8901976E
S113029009F489C08E859F85892B09F0C9C0888996
S11302A09989019709F0C4C08A899B89019709F04B
S11302B0BFC08C899D89019709F0BAC076C088892E
S11302C09989892B49F48A899B89019729F48C8916
S11302D09D89019709F473C08E859F85892B09F048
S11302E0ADC088899989892B09F0A8C08A899B891E
S11302F0892B09F0A3C08C899D89892B09F469C0D5
S11303009DC0888999890197B1F48A899B8901974D
S113031091F48C899D89019771F465C0C29A19CFB3
S1130320609160007091610080916200909163001F
S11303300E947B000ECFC29A0CCFC29A60916000DB
S11303407091610080916200909163000E947B0033
S113035000CFC29A609160007091610080E090E0EB
S11303600E947B00F6CEC29A60E070E08091620049
S1130370909163000E947B00ECCEC29ABFE7E8E351
S1130380F1E0B150E040F040E1F700C000000E940D
S113039082002FE78FE492E1215080409040E1F702
S11303A000C00000BDCFC29ABBCFC29A609160006A
S11303B07091610080E090E00E947B00CACEC29AF6
S11303C060E070E080916200909163000E947B0085
S11303D0C0CEC29A609160007091610080E090E0AC
S11303E00E947B00B6CEC29AC29860916000709160
S11303F0610080916200909163000E947B00A9CE0D
S1130400892B09F08BCF06CF8E859F85019709F044
S113041001CFF3CE8E859F85892B09F42ECF3ACF59
S11304208130910509F436CF019709F084CF54CF78
S11304308E859F85019709F04FCF41CF8E859F858B
S10F0440019709F078CF5DCFF894FFCF4E
S107044CA0005700B1
S9030000FC
